{
  "contractName": "CampaignManager",
  "abi": [
    {
      "inputs": [
        {
          "internalType": "contract IHongbao[]",
          "name": "_hongbaos",
          "type": "address[]"
        }
      ],
      "stateMutability": "nonpayable",
      "type": "constructor"
    },
    {
      "inputs": [
        {
          "internalType": "address",
          "name": "",
          "type": "address"
        },
        {
          "internalType": "uint256",
          "name": "",
          "type": "uint256"
        }
      ],
      "name": "campaignIDs",
      "outputs": [
        {
          "internalType": "uint256",
          "name": "",
          "type": "uint256"
        }
      ],
      "stateMutability": "view",
      "type": "function",
      "constant": true
    },
    {
      "inputs": [],
      "name": "currentCampaignIndex",
      "outputs": [
        {
          "internalType": "uint256",
          "name": "",
          "type": "uint256"
        }
      ],
      "stateMutability": "view",
      "type": "function",
      "constant": true
    },
    {
      "inputs": [
        {
          "internalType": "uint256",
          "name": "",
          "type": "uint256"
        }
      ],
      "name": "hongbaos",
      "outputs": [
        {
          "internalType": "contract IHongbao",
          "name": "",
          "type": "address"
        }
      ],
      "stateMutability": "view",
      "type": "function",
      "constant": true
    },
    {
      "inputs": [
        {
          "internalType": "string",
          "name": "_name",
          "type": "string"
        },
        {
          "internalType": "string",
          "name": "_description",
          "type": "string"
        }
      ],
      "name": "createCampaign",
      "outputs": [
        {
          "internalType": "address",
          "name": "",
          "type": "address"
        }
      ],
      "stateMutability": "nonpayable",
      "type": "function"
    },
    {
      "inputs": [],
      "name": "getMyCampaignIDs",
      "outputs": [
        {
          "internalType": "uint256[]",
          "name": "",
          "type": "uint256[]"
        }
      ],
      "stateMutability": "view",
      "type": "function",
      "constant": true
    },
    {
      "inputs": [
        {
          "internalType": "uint256",
          "name": "campaignID",
          "type": "uint256"
        }
      ],
      "name": "getCampaignInfo",
      "outputs": [
        {
          "components": [
            {
              "internalType": "address",
              "name": "campaignContract",
              "type": "address"
            },
            {
              "internalType": "string",
              "name": "name",
              "type": "string"
            },
            {
              "internalType": "string",
              "name": "description",
              "type": "string"
            }
          ],
          "internalType": "struct CampaignManager.CampaignStruct",
          "name": "",
          "type": "tuple"
        }
      ],
      "stateMutability": "view",
      "type": "function",
      "constant": true
    }
  ],
  "bytecode": "0x608060405260006001553480156200001657600080fd5b5060405162001df138038062001df183398181016040528101906200003c9190620001c3565b8060009080519060200190620000549291906200005c565b5050620002fc565b828054828255906000526020600020908101928215620000d8579160200282015b82811115620000d75782518260006101000a81548173ffffffffffffffffffffffffffffffffffffffff021916908373ffffffffffffffffffffffffffffffffffffffff160217905550916020019190600101906200007d565b5b509050620000e79190620000eb565b5090565b5b8082111562000106576000816000905550600101620000ec565b5090565b6000620001216200011b846200023c565b62000208565b905080838252602082019050828560208602820111156200014157600080fd5b60005b858110156200017557816200015a8882620001ac565b84526020840193506020830192505060018101905062000144565b5050509392505050565b600082601f8301126200019157600080fd5b8151620001a38482602086016200010a565b91505092915050565b600081519050620001bd81620002e2565b92915050565b600060208284031215620001d657600080fd5b600082015167ffffffffffffffff811115620001f157600080fd5b620001ff848285016200017f565b91505092915050565b6000604051905081810181811067ffffffffffffffff82111715620002325762000231620002b3565b5b8060405250919050565b600067ffffffffffffffff8211156200025a5762000259620002b3565b5b602082029050602081019050919050565b6000620002788262000293565b9050919050565b60006200028c826200026b565b9050919050565b600073ffffffffffffffffffffffffffffffffffffffff82169050919050565b7f4e487b7100000000000000000000000000000000000000000000000000000000600052604160045260246000fd5b620002ed816200027f565b8114620002f957600080fd5b50565b611ae5806200030c6000396000f3fe60806040523480156200001157600080fd5b50600436106200006a5760003560e01c806337048cf1146200006f5780635f592a8514620000a557806377eddad214620000c7578063d39afa1d14620000fd578063e38e2b82146200011f578063fce3f6ac1462000155575b600080fd5b6200008d6004803603810190620000879190620007ef565b6200018b565b6040516200009c919062000b2d565b60405180910390f35b620000af620001bd565b604051620000be919062000b2d565b60405180910390f35b620000e56004803603810190620000df9190620008a3565b620001c3565b604051620000f4919062000ac8565b60405180910390f35b6200010762000203565b60405162000116919062000aa4565b60405180910390f35b6200013d6004803603810190620001379190620008a3565b6200029a565b6040516200014c919062000b09565b60405180910390f35b6200017360048036038101906200016d919062000830565b62000453565b60405162000182919062000a87565b60405180910390f35b60026020528160005260406000208181548110620001a857600080fd5b90600052602060002001600091509150505481565b60015481565b60008181548110620001d457600080fd5b906000526020600020016000915054906101000a900473ffffffffffffffffffffffffffffffffffffffff1681565b6060600260003373ffffffffffffffffffffffffffffffffffffffff1673ffffffffffffffffffffffffffffffffffffffff1681526020019081526020016000208054806020026020016040519081016040528092919081815260200182805480156200029057602002820191906000526020600020905b8154815260200190600101908083116200027b575b5050505050905090565b620002a46200065a565b600360008381526020019081526020016000206040518060600160405290816000820160009054906101000a900473ffffffffffffffffffffffffffffffffffffffff1673ffffffffffffffffffffffffffffffffffffffff1673ffffffffffffffffffffffffffffffffffffffff1681526020016001820180546200032a9062000cc2565b80601f0160208091040260200160405190810160405280929190818152602001828054620003589062000cc2565b8015620003a95780601f106200037d57610100808354040283529160200191620003a9565b820191906000526020600020905b8154815290600101906020018083116200038b57829003601f168201915b50505050508152602001600282018054620003c49062000cc2565b80601f0160208091040260200160405190810160405280929190818152602001828054620003f29062000cc2565b8015620004435780601f10620004175761010080835404028352916020019162000443565b820191906000526020600020905b8154815290600101906020018083116200042557829003601f168201915b5050505050815250509050919050565b60008083604051620004659062000691565b62000471919062000ae5565b604051809103906000f0801580156200048e573d6000803e3d6000fd5b5090508073ffffffffffffffffffffffffffffffffffffffff1663f2fde38b336040518263ffffffff1660e01b8152600401620004cc919062000a87565b600060405180830381600087803b158015620004e757600080fd5b505af1158015620004fc573d6000803e3d6000fd5b5050505060405180606001604052808273ffffffffffffffffffffffffffffffffffffffff1681526020018581526020018481525060036000600154815260200190815260200160002060008201518160000160006101000a81548173ffffffffffffffffffffffffffffffffffffffff021916908373ffffffffffffffffffffffffffffffffffffffff1602179055506020820151816001019080519060200190620005ab9291906200069f565b506040820151816002019080519060200190620005ca9291906200069f565b50905050600260003373ffffffffffffffffffffffffffffffffffffffff1673ffffffffffffffffffffffffffffffffffffffff1681526020019081526020016000206001549080600181540180825580915050600190039060005260206000200160009091909190915055600160008154809291906200064b9062000cf8565b91905055508091505092915050565b6040518060600160405280600073ffffffffffffffffffffffffffffffffffffffff16815260200160608152602001606081525090565b610c978062000e1983390190565b828054620006ad9062000cc2565b90600052602060002090601f016020900481019282620006d157600085556200071d565b82601f10620006ec57805160ff19168380011785556200071d565b828001600101855582156200071d579182015b828111156200071c578251825591602001919060010190620006ff565b5b5090506200072c919062000730565b5090565b5b808211156200074b57600081600090555060010162000731565b5090565b600062000766620007608462000b7e565b62000b4a565b9050828152602081018484840111156200077f57600080fd5b6200078c84828562000c7d565b509392505050565b600081359050620007a58162000de4565b92915050565b600082601f830112620007bd57600080fd5b8135620007cf8482602086016200074f565b91505092915050565b600081359050620007e98162000dfe565b92915050565b600080604083850312156200080357600080fd5b6000620008138582860162000794565b92505060206200082685828601620007d8565b9150509250929050565b600080604083850312156200084457600080fd5b600083013567ffffffffffffffff8111156200085f57600080fd5b6200086d85828601620007ab565b925050602083013567ffffffffffffffff8111156200088b57600080fd5b6200089985828601620007ab565b9150509250929050565b600060208284031215620008b657600080fd5b6000620008c684828501620007d8565b91505092915050565b6000620008dd838362000a65565b60208301905092915050565b620008f48162000c17565b82525050565b620009058162000c17565b82525050565b6000620009188262000bc1565b62000924818562000be4565b9350620009318362000bb1565b8060005b83811015620009685781516200094c8882620008cf565b9750620009598362000bd7565b92505060018101905062000935565b5085935050505092915050565b620009808162000c55565b82525050565b6000620009938262000bcc565b6200099f818562000bf5565b9350620009b181856020860162000c8c565b620009bc8162000dd3565b840191505092915050565b6000620009d48262000bcc565b620009e0818562000c06565b9350620009f281856020860162000c8c565b620009fd8162000dd3565b840191505092915050565b600060608301600083015162000a226000860182620008e9565b506020830151848203602086015262000a3c828262000986565b9150506040830151848203604086015262000a58828262000986565b9150508091505092915050565b62000a708162000c4b565b82525050565b62000a818162000c4b565b82525050565b600060208201905062000a9e6000830184620008fa565b92915050565b6000602082019050818103600083015262000ac081846200090b565b905092915050565b600060208201905062000adf600083018462000975565b92915050565b6000602082019050818103600083015262000b018184620009c7565b905092915050565b6000602082019050818103600083015262000b25818462000a08565b905092915050565b600060208201905062000b44600083018462000a76565b92915050565b6000604051905081810181811067ffffffffffffffff8211171562000b745762000b7362000da4565b5b8060405250919050565b600067ffffffffffffffff82111562000b9c5762000b9b62000da4565b5b601f19601f8301169050602081019050919050565b6000819050602082019050919050565b600081519050919050565b600081519050919050565b6000602082019050919050565b600082825260208201905092915050565b600082825260208201905092915050565b600082825260208201905092915050565b600062000c248262000c2b565b9050919050565b600073ffffffffffffffffffffffffffffffffffffffff82169050919050565b6000819050919050565b600062000c628262000c69565b9050919050565b600062000c768262000c2b565b9050919050565b82818337600083830152505050565b60005b8381101562000cac57808201518184015260208101905062000c8f565b8381111562000cbc576000848401525b50505050565b6000600282049050600182168062000cdb57607f821691505b6020821081141562000cf25762000cf162000d75565b5b50919050565b600062000d058262000c4b565b91507fffffffffffffffffffffffffffffffffffffffffffffffffffffffffffffffff82141562000d3b5762000d3a62000d46565b5b600182019050919050565b7f4e487b7100000000000000000000000000000000000000000000000000000000600052601160045260246000fd5b7f4e487b7100000000000000000000000000000000000000000000000000000000600052602260045260246000fd5b7f4e487b7100000000000000000000000000000000000000000000000000000000600052604160045260246000fd5b6000601f19601f8301169050919050565b62000def8162000c17565b811462000dfb57600080fd5b50565b62000e098162000c4b565b811462000e1557600080fd5b5056fe60806040523480156200001157600080fd5b5060405162000c9738038062000c97833981810160405281019062000037919062000265565b620000576200004b6200007760201b60201c565b6200007f60201b60201c565b80600190805190602001906200006f92919062000143565b5050620003db565b600033905090565b60008060009054906101000a900473ffffffffffffffffffffffffffffffffffffffff169050816000806101000a81548173ffffffffffffffffffffffffffffffffffffffff021916908373ffffffffffffffffffffffffffffffffffffffff1602179055508173ffffffffffffffffffffffffffffffffffffffff168173ffffffffffffffffffffffffffffffffffffffff167f8be0079c531659141344cd1fd0a4f28419497f9722a3daafe3b4186f6b6457e060405160405180910390a35050565b828054620001519062000347565b90600052602060002090601f016020900481019282620001755760008555620001c1565b82601f106200019057805160ff1916838001178555620001c1565b82800160010185558215620001c1579182015b82811115620001c0578251825591602001919060010190620001a3565b5b509050620001d09190620001d4565b5090565b5b80821115620001ef576000816000905550600101620001d5565b5090565b60006200020a6200020484620002de565b620002aa565b9050828152602081018484840111156200022357600080fd5b6200023084828562000311565b509392505050565b600082601f8301126200024a57600080fd5b81516200025c848260208601620001f3565b91505092915050565b6000602082840312156200027857600080fd5b600082015167ffffffffffffffff8111156200029357600080fd5b620002a18482850162000238565b91505092915050565b6000604051905081810181811067ffffffffffffffff82111715620002d457620002d3620003ac565b5b8060405250919050565b600067ffffffffffffffff821115620002fc57620002fb620003ac565b5b601f19601f8301169050602081019050919050565b60005b838110156200033157808201518184015260208101905062000314565b8381111562000341576000848401525b50505050565b600060028204905060018216806200036057607f821691505b602082108114156200037757620003766200037d565b5b50919050565b7f4e487b7100000000000000000000000000000000000000000000000000000000600052602260045260246000fd5b7f4e487b7100000000000000000000000000000000000000000000000000000000600052604160045260246000fd5b6108ac80620003eb6000396000f3fe6080604052600436106100595760003560e01c806306fdde03146100d45780633ccfd60b146100ff578063715018a6146101095780638da5cb5b146101205780639e96a23a1461014b578063f2fde38b1461015557610099565b36610099577f88a5966d370b9919b20f3e2c13ff65706f196a4e32cc2c12bf57088f88525874333460405161008f9291906106d7565b60405180910390a1005b7f88a5966d370b9919b20f3e2c13ff65706f196a4e32cc2c12bf57088f8852587433346040516100ca9291906106d7565b60405180910390a1005b3480156100e057600080fd5b506100e961017e565b6040516100f69190610700565b60405180910390f35b61010761020c565b005b34801561011557600080fd5b5061011e6102d1565b005b34801561012c57600080fd5b50610135610359565b60405161014291906106bc565b60405180910390f35b610153610382565b005b34801561016157600080fd5b5061017c60048036038101906101779190610596565b6103bd565b005b6001805461018b906107ed565b80601f01602080910402602001604051908101604052809291908181526020018280546101b7906107ed565b80156102045780601f106101d957610100808354040283529160200191610204565b820191906000526020600020905b8154815290600101906020018083116101e757829003601f168201915b505050505081565b6102146104b5565b73ffffffffffffffffffffffffffffffffffffffff16610232610359565b73ffffffffffffffffffffffffffffffffffffffff1614610288576040517f08c379a000000000000000000000000000000000000000000000000000000000815260040161027f90610742565b60405180910390fd5b3373ffffffffffffffffffffffffffffffffffffffff166108fc479081150290604051600060405180830381858888f193505050501580156102ce573d6000803e3d6000fd5b50565b6102d96104b5565b73ffffffffffffffffffffffffffffffffffffffff166102f7610359565b73ffffffffffffffffffffffffffffffffffffffff161461034d576040517f08c379a000000000000000000000000000000000000000000000000000000000815260040161034490610742565b60405180910390fd5b61035760006104bd565b565b60008060009054906101000a900473ffffffffffffffffffffffffffffffffffffffff16905090565b7f88a5966d370b9919b20f3e2c13ff65706f196a4e32cc2c12bf57088f8852587433346040516103b39291906106d7565b60405180910390a1565b6103c56104b5565b73ffffffffffffffffffffffffffffffffffffffff166103e3610359565b73ffffffffffffffffffffffffffffffffffffffff1614610439576040517f08c379a000000000000000000000000000000000000000000000000000000000815260040161043090610742565b60405180910390fd5b600073ffffffffffffffffffffffffffffffffffffffff168173ffffffffffffffffffffffffffffffffffffffff1614156104a9576040517f08c379a00000000000000000000000000000000000000000000000000000000081526004016104a090610722565b60405180910390fd5b6104b2816104bd565b50565b600033905090565b60008060009054906101000a900473ffffffffffffffffffffffffffffffffffffffff169050816000806101000a81548173ffffffffffffffffffffffffffffffffffffffff021916908373ffffffffffffffffffffffffffffffffffffffff1602179055508173ffffffffffffffffffffffffffffffffffffffff168173ffffffffffffffffffffffffffffffffffffffff167f8be0079c531659141344cd1fd0a4f28419497f9722a3daafe3b4186f6b6457e060405160405180910390a35050565b6000813590506105908161085f565b92915050565b6000602082840312156105a857600080fd5b60006105b684828501610581565b91505092915050565b6105c88161077e565b82525050565b60006105d982610762565b6105e3818561076d565b93506105f38185602086016107ba565b6105fc8161084e565b840191505092915050565b600061061460268361076d565b91507f4f776e61626c653a206e6577206f776e657220697320746865207a65726f206160008301527f64647265737300000000000000000000000000000000000000000000000000006020830152604082019050919050565b600061067a60208361076d565b91507f4f776e61626c653a2063616c6c6572206973206e6f7420746865206f776e65726000830152602082019050919050565b6106b6816107b0565b82525050565b60006020820190506106d160008301846105bf565b92915050565b60006040820190506106ec60008301856105bf565b6106f960208301846106ad565b9392505050565b6000602082019050818103600083015261071a81846105ce565b905092915050565b6000602082019050818103600083015261073b81610607565b9050919050565b6000602082019050818103600083015261075b8161066d565b9050919050565b600081519050919050565b600082825260208201905092915050565b600061078982610790565b9050919050565b600073ffffffffffffffffffffffffffffffffffffffff82169050919050565b6000819050919050565b60005b838110156107d85780820151818401526020810190506107bd565b838111156107e7576000848401525b50505050565b6000600282049050600182168061080557607f821691505b602082108114156108195761081861081f565b5b50919050565b7f4e487b7100000000000000000000000000000000000000000000000000000000600052602260045260246000fd5b6000601f19601f8301169050919050565b6108688161077e565b811461087357600080fd5b5056fea2646970667358221220009a7756a776c122b0ce8859907e37957779e70fe101a4d26235a1c96765c4bf64736f6c63430008000033a26469706673582212206ba243e9bc12d30b6e503d38719b8f149343936def5b18b62b3f1616920d95e364736f6c63430008000033",
  "immutableReferences": {},
  "source": "// SPDX-License-Identifier: GPL-3.0\n\npragma solidity ^0.8.0;\n\nimport './Campaign.sol';\n\ninterface IHongbao {\n    function deposit(bytes32 _commitment) external payable;\n    function withdraw(\n        uint256[8] calldata _proofData,\n        uint256[6] calldata _publicInputs\n    ) external payable;\n    function transferOwnership(address newOwner) external;\n}\n\ncontract CampaignManager {\n    IHongbao[] public hongbaos;\n\n    struct CampaignStruct {\n        address campaignContract;\n        string name;\n        string description;\n    }\n\n    uint256 public currentCampaignIndex = 0;\n\n    mapping(address => uint256[]) public campaignIDs;\n    mapping(uint256 => CampaignStruct) campaigns;\n\n    constructor(\n        IHongbao[] memory _hongbaos\n    ) {\n        hongbaos = _hongbaos;\n    }\n\n    function createCampaign (string memory _name, \n                            string memory _description) external returns (address) {\n        Campaign campaign = new Campaign(_name);\n        campaign.transferOwnership(msg.sender);\n        \n        campaigns[currentCampaignIndex] = CampaignStruct({\n                                                campaignContract: address(campaign),\n                                                name: _name,\n                                                description: _description\n                                            });\n        campaignIDs[msg.sender].push(currentCampaignIndex);\n        \n        currentCampaignIndex++;\n       \n        return address(campaign);\n    }\n\n    function getMyCampaignIDs() external view returns (uint256[] memory) {\n        return campaignIDs[msg.sender];\n    }\n\n    function getCampaignInfo(uint256 campaignID) \n                external view returns (CampaignStruct memory){\n\n        return campaigns[campaignID];\n    }\n}",
  "sourcePath": "/media/disk2/ubuntu/hongbao-core/contracts/CampaignManager.sol",
  "compiler": {
    "name": "solc",
    "version": "0.8.0+commit.c7dfd78e.Emscripten.clang"
  },
  "schemaVersion": "3.4.7",
  "updatedAt": "2022-05-05T14:19:54.411Z",
  "networkType": "ethereum",
  "devdoc": {
    "kind": "dev",
    "methods": {},
    "version": 1
  },
  "userdoc": {
    "kind": "user",
    "methods": {},
    "version": 1
  }
}