{
  "contractName": "ETHHongbao",
  "abi": [
    {
      "inputs": [
        {
          "internalType": "contract IVerifier",
          "name": "_verifier",
          "type": "address"
        },
        {
          "internalType": "contract IHasher",
          "name": "_hasher",
          "type": "address"
        },
        {
          "internalType": "uint256",
          "name": "_denomination",
          "type": "uint256"
        },
        {
          "internalType": "uint32",
          "name": "_merkleTreeHeight",
          "type": "uint32"
        }
      ],
      "stateMutability": "nonpayable",
      "type": "constructor"
    },
    {
      "anonymous": false,
      "inputs": [
        {
          "indexed": true,
          "internalType": "bytes32",
          "name": "commitment",
          "type": "bytes32"
        },
        {
          "indexed": false,
          "internalType": "bytes32",
          "name": "root",
          "type": "bytes32"
        },
        {
          "indexed": false,
          "internalType": "uint32",
          "name": "leafIndex",
          "type": "uint32"
        },
        {
          "indexed": false,
          "internalType": "bytes32[]",
          "name": "pathElements",
          "type": "bytes32[]"
        },
        {
          "indexed": false,
          "internalType": "uint32",
          "name": "pathIndices",
          "type": "uint32"
        },
        {
          "indexed": false,
          "internalType": "uint256",
          "name": "timestamp",
          "type": "uint256"
        }
      ],
      "name": "Deposit",
      "type": "event"
    },
    {
      "anonymous": false,
      "inputs": [
        {
          "indexed": false,
          "internalType": "address",
          "name": "to",
          "type": "address"
        },
        {
          "indexed": false,
          "internalType": "bytes32",
          "name": "nullifierHash",
          "type": "bytes32"
        },
        {
          "indexed": true,
          "internalType": "address",
          "name": "relayer",
          "type": "address"
        },
        {
          "indexed": false,
          "internalType": "uint256",
          "name": "fee",
          "type": "uint256"
        }
      ],
      "name": "Withdrawal",
      "type": "event"
    },
    {
      "inputs": [],
      "name": "FIELD_SIZE",
      "outputs": [
        {
          "internalType": "uint256",
          "name": "",
          "type": "uint256"
        }
      ],
      "stateMutability": "view",
      "type": "function",
      "constant": true
    },
    {
      "inputs": [],
      "name": "ROOT_HISTORY_SIZE",
      "outputs": [
        {
          "internalType": "uint32",
          "name": "",
          "type": "uint32"
        }
      ],
      "stateMutability": "view",
      "type": "function",
      "constant": true
    },
    {
      "inputs": [],
      "name": "ZERO_VALUE",
      "outputs": [
        {
          "internalType": "uint256",
          "name": "",
          "type": "uint256"
        }
      ],
      "stateMutability": "view",
      "type": "function",
      "constant": true
    },
    {
      "inputs": [
        {
          "internalType": "bytes32",
          "name": "",
          "type": "bytes32"
        }
      ],
      "name": "commitments",
      "outputs": [
        {
          "internalType": "bool",
          "name": "",
          "type": "bool"
        }
      ],
      "stateMutability": "view",
      "type": "function",
      "constant": true
    },
    {
      "inputs": [],
      "name": "currentRootIndex",
      "outputs": [
        {
          "internalType": "uint32",
          "name": "",
          "type": "uint32"
        }
      ],
      "stateMutability": "view",
      "type": "function",
      "constant": true
    },
    {
      "inputs": [],
      "name": "denomination",
      "outputs": [
        {
          "internalType": "uint256",
          "name": "",
          "type": "uint256"
        }
      ],
      "stateMutability": "view",
      "type": "function",
      "constant": true
    },
    {
      "inputs": [
        {
          "internalType": "bytes32",
          "name": "_commitment",
          "type": "bytes32"
        }
      ],
      "name": "deposit",
      "outputs": [],
      "stateMutability": "payable",
      "type": "function",
      "payable": true
    },
    {
      "inputs": [
        {
          "internalType": "uint256",
          "name": "",
          "type": "uint256"
        }
      ],
      "name": "filledSubtrees",
      "outputs": [
        {
          "internalType": "bytes32",
          "name": "",
          "type": "bytes32"
        }
      ],
      "stateMutability": "view",
      "type": "function",
      "constant": true
    },
    {
      "inputs": [],
      "name": "getLastRoot",
      "outputs": [
        {
          "internalType": "bytes32",
          "name": "",
          "type": "bytes32"
        }
      ],
      "stateMutability": "view",
      "type": "function",
      "constant": true
    },
    {
      "inputs": [
        {
          "internalType": "contract IHasher",
          "name": "_hasher",
          "type": "address"
        },
        {
          "internalType": "bytes32",
          "name": "_left",
          "type": "bytes32"
        },
        {
          "internalType": "bytes32",
          "name": "_right",
          "type": "bytes32"
        }
      ],
      "name": "hashLeftRight",
      "outputs": [
        {
          "internalType": "bytes32",
          "name": "",
          "type": "bytes32"
        }
      ],
      "stateMutability": "pure",
      "type": "function",
      "constant": true
    },
    {
      "inputs": [],
      "name": "hasher",
      "outputs": [
        {
          "internalType": "contract IHasher",
          "name": "",
          "type": "address"
        }
      ],
      "stateMutability": "view",
      "type": "function",
      "constant": true
    },
    {
      "inputs": [
        {
          "internalType": "bytes32",
          "name": "_root",
          "type": "bytes32"
        }
      ],
      "name": "isKnownRoot",
      "outputs": [
        {
          "internalType": "bool",
          "name": "",
          "type": "bool"
        }
      ],
      "stateMutability": "view",
      "type": "function",
      "constant": true
    },
    {
      "inputs": [
        {
          "internalType": "bytes32",
          "name": "_nullifierHash",
          "type": "bytes32"
        }
      ],
      "name": "isSpent",
      "outputs": [
        {
          "internalType": "bool",
          "name": "",
          "type": "bool"
        }
      ],
      "stateMutability": "view",
      "type": "function",
      "constant": true
    },
    {
      "inputs": [
        {
          "internalType": "bytes32[]",
          "name": "_nullifierHashes",
          "type": "bytes32[]"
        }
      ],
      "name": "isSpentArray",
      "outputs": [
        {
          "internalType": "bool[]",
          "name": "spent",
          "type": "bool[]"
        }
      ],
      "stateMutability": "view",
      "type": "function",
      "constant": true
    },
    {
      "inputs": [],
      "name": "levels",
      "outputs": [
        {
          "internalType": "uint32",
          "name": "",
          "type": "uint32"
        }
      ],
      "stateMutability": "view",
      "type": "function",
      "constant": true
    },
    {
      "inputs": [
        {
          "internalType": "uint256",
          "name": "left",
          "type": "uint256"
        },
        {
          "internalType": "uint256",
          "name": "right",
          "type": "uint256"
        }
      ],
      "name": "mimcHash",
      "outputs": [
        {
          "internalType": "bytes32",
          "name": "",
          "type": "bytes32"
        }
      ],
      "stateMutability": "view",
      "type": "function",
      "constant": true
    },
    {
      "inputs": [],
      "name": "nextIndex",
      "outputs": [
        {
          "internalType": "uint32",
          "name": "",
          "type": "uint32"
        }
      ],
      "stateMutability": "view",
      "type": "function",
      "constant": true
    },
    {
      "inputs": [
        {
          "internalType": "bytes32",
          "name": "",
          "type": "bytes32"
        }
      ],
      "name": "nullifierHashes",
      "outputs": [
        {
          "internalType": "bool",
          "name": "",
          "type": "bool"
        }
      ],
      "stateMutability": "view",
      "type": "function",
      "constant": true
    },
    {
      "inputs": [
        {
          "internalType": "uint256",
          "name": "",
          "type": "uint256"
        }
      ],
      "name": "roots",
      "outputs": [
        {
          "internalType": "bytes32",
          "name": "",
          "type": "bytes32"
        }
      ],
      "stateMutability": "view",
      "type": "function",
      "constant": true
    },
    {
      "inputs": [],
      "name": "verifier",
      "outputs": [
        {
          "internalType": "contract IVerifier",
          "name": "",
          "type": "address"
        }
      ],
      "stateMutability": "view",
      "type": "function",
      "constant": true
    },
    {
      "inputs": [
        {
          "internalType": "uint256[8]",
          "name": "_proofData",
          "type": "uint256[8]"
        },
        {
          "internalType": "uint256[6]",
          "name": "_publicInputs",
          "type": "uint256[6]"
        }
      ],
      "name": "withdraw",
      "outputs": [],
      "stateMutability": "payable",
      "type": "function",
      "payable": true
    },
    {
      "inputs": [
        {
          "internalType": "uint256",
          "name": "i",
          "type": "uint256"
        }
      ],
      "name": "zeros",
      "outputs": [
        {
          "internalType": "bytes32",
          "name": "",
          "type": "bytes32"
        }
      ],
      "stateMutability": "pure",
      "type": "function",
      "constant": true
    }
  ],
  "bytecode": "0x60e06040526000600360006101000a81548163ffffffff021916908363ffffffff1602179055506000600360046101000a81548163ffffffff021916908363ffffffff1602179055503480156200005557600080fd5b5060405162003f5238038062003f5283398181016040528101906200007b9190620007b9565b83838383808360008263ffffffff1611620000cd576040517f08c379a0000000000000000000000000000000000000000000000000000000008152600401620000c490620009bd565b60405180910390fd5b60208263ffffffff161062000119576040517f08c379a000000000000000000000000000000000000000000000000000000000815260040162000110906200099b565b60405180910390fd5b816000806101000a81548163ffffffff021916908363ffffffff1602179055508073ffffffffffffffffffffffffffffffffffffffff1660808173ffffffffffffffffffffffffffffffffffffffff1660601b8152505060005b8263ffffffff168163ffffffff161015620001d2576200019f8163ffffffff16620002ac60201b60201c565b600160008363ffffffff168152602001908152602001600020819055508080620001c99062000ac3565b91505062000173565b50620001f8600183620001e6919062000a12565b63ffffffff16620002ac60201b60201c565b600260008081526020019081526020016000208190555050506001600481905550600082116200025f576040517f08c379a0000000000000000000000000000000000000000000000000000000008152600401620002569062000979565b60405180910390fd5b8373ffffffffffffffffffffffffffffffffffffffff1660a08173ffffffffffffffffffffffffffffffffffffffff1660601b815250508160c08181525050505050505050505062000b8c565b600080821415620002e3577f12f1c868f7a8a61c1c0c699f7272f7089ca416432fcc978be7abb941e15ab6a360001b905062000758565b600182141562000319577f2df788be786881da8a3314c0e6e84ad533e62c3609f818cde7cf0a9bb363d06260001b905062000758565b60028214156200034f577f16425d57f21e06867dee8398d97d7beb7e0a1bf8ce701793266ee0ff6765025c60001b905062000758565b600382141562000385577f23abad249052d2923f26ed956fcd1c2bcd5eff324a3bd2ffae42f40514c9ab9260001b905062000758565b6004821415620003bb577f0e449e754c50ebdd1934e2581c91b15883d9b3280da8472c8679193df754107d60001b905062000758565b6005821415620003f1577f28304fd49efd740bf703ed270284c09b616c23440016bf6ad5705372b684f10b60001b905062000758565b600682141562000427577f1287d83833dd726a6e3df227b2d9f032df9f10b9fc8b33a69d65fbca26e651d260001b905062000758565b60078214156200045d577f035bb0e30dc1fcfb93c39f842b20fc08a958a24a34c6d3fe3a65b186e5956b4d60001b905062000758565b600882141562000493577f0b03891f4d509dccf716d9aedfc4bc1538eeb385aee95e1ff47a029aa950c60760001b905062000758565b6009821415620004c9577f2a63376839b1317433625ebaf6b4ab619e9c15661c0851839dd29c3d54bc1a5660001b905062000758565b600a821415620004ff577f198fcf42ce24d39eba2da516f93efcd7a2d414450ad482adc3b10fbb63082a0460001b905062000758565b600b82141562000535577f01446610d8f1dae7a0a681329264fc9c463ab9e9347b8af404165689bb53338060001b905062000758565b600c8214156200056b577f1a97668a2fc2920c31bd17d57154427b84f3b3207a107a3f06beaa1fc56578f260001b905062000758565b600d821415620005a1577f07c12f492251b255bc8b9eaf99819c32a62b4089a6ea659dd4a5f8fa57c1332a60001b905062000758565b600e821415620005d7577f1c07e9005be9b0a4af487e727473d5f52c72d3aee062ff06671d12909eac4d0960001b905062000758565b600f8214156200060d577f0b82200a98a49e44c92d7c0835e3f29668953821074e91071b8500796d5e58dc60001b905062000758565b601082141562000643577f097821acb9fbcd6cdcd43b5895f38bdc108b1ff178942e726692e0cc92a2868c60001b905062000758565b601182141562000679577f2b1fe32c11a3344a25a024c038c5e00e0b2e16b7aa0ab4129c9fe6370420871d60001b905062000758565b6012821415620006af577f083ceeacfbd85f703adec26cc99dd83724b7773fc999545ef63fad45b2cc28b060001b905062000758565b6013821415620006e5577f23192b109e2809b0a6d38b5fbb52a3eafbafc1432b4545a486cb3011c59b739960001b905062000758565b60148214156200071b577f14948fc09d57389d97d4e78692506386efb6cdd56664f7623252b0ff74a180b960001b905062000758565b6040517f08c379a00000000000000000000000000000000000000000000000000000000081526004016200074f90620009df565b60405180910390fd5b919050565b6000815190506200076e8162000b24565b92915050565b600081519050620007858162000b3e565b92915050565b6000815190506200079c8162000b58565b92915050565b600081519050620007b38162000b72565b92915050565b60008060008060808587031215620007d057600080fd5b6000620007e08782880162000774565b9450506020620007f3878288016200075d565b935050604062000806878288016200078b565b92505060606200081987828801620007a2565b91505092959194509250565b60006200083460258362000a01565b91507f64656e6f6d696e6174696f6e2073686f756c642062652067726561746572207460008301527f68616e20300000000000000000000000000000000000000000000000000000006020830152604082019050919050565b60006200089c601e8362000a01565b91507f5f6c6576656c732073686f756c64206265206c657373207468616e20333200006000830152602082019050919050565b6000620008de60238362000a01565b91507f5f6c6576656c732073686f756c642062652067726561746572207468616e207a60008301527f65726f00000000000000000000000000000000000000000000000000000000006020830152604082019050919050565b60006200094660138362000a01565b91507f496e646578206f7574206f6620626f756e6473000000000000000000000000006000830152602082019050919050565b60006020820190508181036000830152620009948162000825565b9050919050565b60006020820190508181036000830152620009b6816200088d565b9050919050565b60006020820190508181036000830152620009d881620008cf565b9050919050565b60006020820190508181036000830152620009fa8162000937565b9050919050565b600082825260208201905092915050565b600062000a1f8262000ab3565b915062000a2c8362000ab3565b92508282101562000a425762000a4162000af5565b5b828203905092915050565b600062000a5a8262000a89565b9050919050565b600062000a6e8262000a4d565b9050919050565b600062000a828262000a4d565b9050919050565b600073ffffffffffffffffffffffffffffffffffffffff82169050919050565b6000819050919050565b600063ffffffff82169050919050565b600062000ad08262000ab3565b915063ffffffff82141562000aea5762000ae962000af5565b5b600182019050919050565b7f4e487b7100000000000000000000000000000000000000000000000000000000600052601160045260246000fd5b62000b2f8162000a61565b811462000b3b57600080fd5b50565b62000b498162000a75565b811462000b5557600080fd5b50565b62000b638162000aa9565b811462000b6f57600080fd5b50565b62000b7d8162000ab3565b811462000b8957600080fd5b50565b60805160601c60a05160601c60c05161336662000bec6000396000818161070e01528181610fa7015281816119ea0152611ee00152600081816105a401526108da0152600081816105cb015281816118f80152611ddd01526133666000f3fe6080604052600436106101355760003560e01c80639fa12d0b116100ab578063e5285dcc1161006f578063e5285dcc1461044a578063e829558814610487578063ec732959146104c4578063ed33639f146104ef578063f178e47c1461051a578063fc7e9c6f1461055757610135565b80639fa12d0b1461035e578063b214faa51461039b578063ba70f757146103b7578063c2b40ae4146103e2578063cd87a3b41461041f57610135565b806367367e2b116100fd57806367367e2b146102355780636d9833e314610251578063839df9451461028e5780638bca6d16146102cb5780638ea3099e146102f657806390eeb02b1461033357610135565b806317cc915c1461013a5780632b7ac3f3146101775780632d38a38a146101a2578063414a37ba146101df5780634ecf518b1461020a575b600080fd5b34801561014657600080fd5b50610161600480360381019061015c91906120dd565b610582565b60405161016e9190612a8b565b60405180910390f35b34801561018357600080fd5b5061018c6105a2565b6040516101999190612b36565b60405180910390f35b3480156101ae57600080fd5b506101c960048036038101906101c4919061217e565b6105c6565b6040516101d69190612aa6565b60405180910390f35b3480156101eb57600080fd5b506101f4610686565b6040516102019190612d31565b60405180910390f35b34801561021657600080fd5b5061021f6106aa565b60405161022c9190612d83565b60405180910390f35b61024f600480360381019061024a9190612076565b6106be565b005b34801561025d57600080fd5b50610278600480360381019061027391906120dd565b610ee4565b6040516102859190612a8b565b60405180910390f35b34801561029a57600080fd5b506102b560048036038101906102b091906120dd565b610f85565b6040516102c29190612a8b565b60405180910390f35b3480156102d757600080fd5b506102e0610fa5565b6040516102ed9190612d31565b60405180910390f35b34801561030257600080fd5b5061031d60048036038101906103189190612106565b610fc9565b60405161032a9190612aa6565b60405180910390f35b34801561033f57600080fd5b5061034861113b565b6040516103559190612d83565b60405180910390f35b34801561036a57600080fd5b5061038560048036038101906103809190612031565b611151565b6040516103929190612a22565b60405180910390f35b6103b560048036038101906103b091906120dd565b61128a565b005b3480156103c357600080fd5b506103cc6113d3565b6040516103d99190612aa6565b60405180910390f35b3480156103ee57600080fd5b5061040960048036038101906104049190612155565b611406565b6040516104169190612aa6565b60405180910390f35b34801561042b57600080fd5b5061043461141e565b6040516104419190612d83565b60405180910390f35b34801561045657600080fd5b50610471600480360381019061046c91906120dd565b611423565b60405161047e9190612a8b565b60405180910390f35b34801561049357600080fd5b506104ae60048036038101906104a99190612155565b61144d565b6040516104bb9190612aa6565b60405180910390f35b3480156104d057600080fd5b506104d96118d2565b6040516104e69190612d31565b60405180910390f35b3480156104fb57600080fd5b506105046118f6565b6040516105119190612b1b565b60405180910390f35b34801561052657600080fd5b50610541600480360381019061053c9190612155565b61191a565b60405161054e9190612aa6565b60405180910390f35b34801561056357600080fd5b5061056c611932565b6040516105799190612d83565b60405180910390f35b60056020528060005260406000206000915054906101000a900460ff1681565b7f000000000000000000000000000000000000000000000000000000000000000081565b6000807f000000000000000000000000000000000000000000000000000000000000000073ffffffffffffffffffffffffffffffffffffffff16633f1a1187858560006040518463ffffffff1660e01b815260040161062793929190612d4c565b604080518083038186803b15801561063e57600080fd5b505afa158015610652573d6000803e3d6000fd5b505050506040513d601f19601f8201168201806040525081019061067691906121ba565b5090508060001b91505092915050565b7f30644e72e131a029b85045b68181585d2833e84879b9709143e1f593f000000181565b60008054906101000a900463ffffffff1681565b60026004541415610704576040517f08c379a00000000000000000000000000000000000000000000000000000000081526004016106fb90612cf1565b60405180910390fd5b60026004819055507f000000000000000000000000000000000000000000000000000000000000000081600460068110610767577f4e487b7100000000000000000000000000000000000000000000000000000000600052603260045260246000fd5b602002013511156107ad576040517f08c379a00000000000000000000000000000000000000000000000000000000081526004016107a490612b71565b60405180910390fd5b60056000826001600681106107eb577f4e487b7100000000000000000000000000000000000000000000000000000000600052603260045260246000fd5b602002013560001b815260200190815260200160002060009054906101000a900460ff161561084f576040517f08c379a000000000000000000000000000000000000000000000000000000000815260040161084690612c31565b60405180910390fd5b6108998160006006811061088c577f4e487b7100000000000000000000000000000000000000000000000000000000600052603260045260246000fd5b602002013560001b610ee4565b6108d8576040517f08c379a00000000000000000000000000000000000000000000000000000000081526004016108cf90612b51565b60405180910390fd5b7f000000000000000000000000000000000000000000000000000000000000000073ffffffffffffffffffffffffffffffffffffffff1663f398789b604051806040016040528085600060088110610959577f4e487b7100000000000000000000000000000000000000000000000000000000600052603260045260246000fd5b602002013581526020018560016008811061099d577f4e487b7100000000000000000000000000000000000000000000000000000000600052603260045260246000fd5b602002013581525060405180604001604052806040518060400160405280886002600881106109f5577f4e487b7100000000000000000000000000000000000000000000000000000000600052603260045260246000fd5b6020020135815260200188600360088110610a39577f4e487b7100000000000000000000000000000000000000000000000000000000600052603260045260246000fd5b60200201358152508152602001604051806040016040528088600460088110610a8b577f4e487b7100000000000000000000000000000000000000000000000000000000600052603260045260246000fd5b6020020135815260200188600560088110610acf577f4e487b7100000000000000000000000000000000000000000000000000000000600052603260045260246000fd5b6020020135815250815250604051806040016040528087600660088110610b1f577f4e487b7100000000000000000000000000000000000000000000000000000000600052603260045260246000fd5b6020020135815260200187600760088110610b63577f4e487b7100000000000000000000000000000000000000000000000000000000600052603260045260246000fd5b6020020135815250856040518563ffffffff1660e01b8152600401610b8b9493929190612a44565b60206040518083038186803b158015610ba357600080fd5b505afa158015610bb7573d6000803e3d6000fd5b505050506040513d601f19601f82011682018060405250810190610bdb91906120b4565b610c1a576040517f08c379a0000000000000000000000000000000000000000000000000000000008152600401610c1190612bf1565b60405180910390fd5b60016005600083600160068110610c5a577f4e487b7100000000000000000000000000000000000000000000000000000000600052603260045260246000fd5b602002013560001b815260200190815260200160002060006101000a81548160ff021916908315150217905550610d8b81600260068110610cc4577f4e487b7100000000000000000000000000000000000000000000000000000000600052603260045260246000fd5b602002013582600360068110610d03577f4e487b7100000000000000000000000000000000000000000000000000000000600052603260045260246000fd5b602002013583600460068110610d42577f4e487b7100000000000000000000000000000000000000000000000000000000600052603260045260246000fd5b602002013584600560068110610d81577f4e487b7100000000000000000000000000000000000000000000000000000000600052603260045260246000fd5b6020020135611948565b80600360068110610dc5577f4e487b7100000000000000000000000000000000000000000000000000000000600052603260045260246000fd5b602002013573ffffffffffffffffffffffffffffffffffffffff167fe9e508bad6d4c3227e881ca19068f099da81b5164dd6d62b2eaf1e8bc6c3493182600260068110610e3b577f4e487b7100000000000000000000000000000000000000000000000000000000600052603260045260246000fd5b602002013583600160068110610e7a577f4e487b7100000000000000000000000000000000000000000000000000000000600052603260045260246000fd5b602002013560001b84600460068110610ebc577f4e487b7100000000000000000000000000000000000000000000000000000000600052603260045260246000fd5b6020020135604051610ed0939291906129eb565b60405180910390a260016004819055505050565b60008060001b821415610efa5760009050610f80565b6000600360009054906101000a900463ffffffff16905060008190505b600260008263ffffffff16815260200190815260200160002054841415610f4357600192505050610f80565b60008163ffffffff161415610f5757601e90505b8080610f6290613198565b9150508163ffffffff168163ffffffff161415610f17576000925050505b919050565b60066020528060005260406000206000915054906101000a900460ff1681565b7f000000000000000000000000000000000000000000000000000000000000000081565b60007f30644e72e131a029b85045b68181585d2833e84879b9709143e1f593f00000018360001c10611030576040517f08c379a000000000000000000000000000000000000000000000000000000000815260040161102790612bb1565b60405180910390fd5b7f30644e72e131a029b85045b68181585d2833e84879b9709143e1f593f00000018260001c10611095576040517f08c379a000000000000000000000000000000000000000000000000000000000815260040161108c90612bd1565b60405180910390fd5b60008473ffffffffffffffffffffffffffffffffffffffff16633f1a11878560001c8560001c60006040518463ffffffff1660e01b81526004016110db93929190612d4c565b604080518083038186803b1580156110f257600080fd5b505afa158015611106573d6000803e3d6000fd5b505050506040513d601f19601f8201168201806040525081019061112a91906121ba565b5090508060001b9150509392505050565b600360009054906101000a900463ffffffff1681565b60608282905067ffffffffffffffff811115611196577f4e487b7100000000000000000000000000000000000000000000000000000000600052604160045260246000fd5b6040519080825280602002602001820160405280156111c45781602001602082028036833780820191505090505b50905060005b838390508110156112835761121d848483818110611211577f4e487b7100000000000000000000000000000000000000000000000000000000600052603260045260246000fd5b90506020020135611423565b1561127057600182828151811061125d577f4e487b7100000000000000000000000000000000000000000000000000000000600052603260045260246000fd5b6020026020010190151590811515815250505b808061127b906131c2565b9150506111ca565b5092915050565b600260045414156112d0576040517f08c379a00000000000000000000000000000000000000000000000000000000081526004016112c790612cf1565b60405180910390fd5b60026004819055506006600082815260200190815260200160002060009054906101000a900460ff1615611339576040517f08c379a000000000000000000000000000000000000000000000000000000000815260040161133090612c51565b60405180910390fd5b60008060008061134885611b62565b935093509350935060016006600087815260200190815260200160002060006101000a81548160ff021916908315150217905550611384611ede565b847f06acb299553c070c6c2e7b1827b9ba78c79cf520d52edcbb537999a77fae8b9585858585426040516113bc959493929190612ac1565b60405180910390a250505050600160048190555050565b600060026000600360009054906101000a900463ffffffff1663ffffffff16815260200190815260200160002054905090565b60026020528060005260406000206000915090505481565b601e81565b60006005600083815260200190815260200160002060009054906101000a900460ff169050919050565b600080821415611482577f12f1c868f7a8a61c1c0c699f7272f7089ca416432fcc978be7abb941e15ab6a360001b90506118cd565b60018214156114b6577f2df788be786881da8a3314c0e6e84ad533e62c3609f818cde7cf0a9bb363d06260001b90506118cd565b60028214156114ea577f16425d57f21e06867dee8398d97d7beb7e0a1bf8ce701793266ee0ff6765025c60001b90506118cd565b600382141561151e577f23abad249052d2923f26ed956fcd1c2bcd5eff324a3bd2ffae42f40514c9ab9260001b90506118cd565b6004821415611552577f0e449e754c50ebdd1934e2581c91b15883d9b3280da8472c8679193df754107d60001b90506118cd565b6005821415611586577f28304fd49efd740bf703ed270284c09b616c23440016bf6ad5705372b684f10b60001b90506118cd565b60068214156115ba577f1287d83833dd726a6e3df227b2d9f032df9f10b9fc8b33a69d65fbca26e651d260001b90506118cd565b60078214156115ee577f035bb0e30dc1fcfb93c39f842b20fc08a958a24a34c6d3fe3a65b186e5956b4d60001b90506118cd565b6008821415611622577f0b03891f4d509dccf716d9aedfc4bc1538eeb385aee95e1ff47a029aa950c60760001b90506118cd565b6009821415611656577f2a63376839b1317433625ebaf6b4ab619e9c15661c0851839dd29c3d54bc1a5660001b90506118cd565b600a82141561168a577f198fcf42ce24d39eba2da516f93efcd7a2d414450ad482adc3b10fbb63082a0460001b90506118cd565b600b8214156116be577f01446610d8f1dae7a0a681329264fc9c463ab9e9347b8af404165689bb53338060001b90506118cd565b600c8214156116f2577f1a97668a2fc2920c31bd17d57154427b84f3b3207a107a3f06beaa1fc56578f260001b90506118cd565b600d821415611726577f07c12f492251b255bc8b9eaf99819c32a62b4089a6ea659dd4a5f8fa57c1332a60001b90506118cd565b600e82141561175a577f1c07e9005be9b0a4af487e727473d5f52c72d3aee062ff06671d12909eac4d0960001b90506118cd565b600f82141561178e577f0b82200a98a49e44c92d7c0835e3f29668953821074e91071b8500796d5e58dc60001b90506118cd565b60108214156117c2577f097821acb9fbcd6cdcd43b5895f38bdc108b1ff178942e726692e0cc92a2868c60001b90506118cd565b60118214156117f6577f2b1fe32c11a3344a25a024c038c5e00e0b2e16b7aa0ab4129c9fe6370420871d60001b90506118cd565b601282141561182a577f083ceeacfbd85f703adec26cc99dd83724b7773fc999545ef63fad45b2cc28b060001b90506118cd565b601382141561185e577f23192b109e2809b0a6d38b5fbb52a3eafbafc1432b4545a486cb3011c59b739960001b90506118cd565b6014821415611892577f14948fc09d57389d97d4e78692506386efb6cdd56664f7623252b0ff74a180b960001b90506118cd565b6040517f08c379a00000000000000000000000000000000000000000000000000000000081526004016118c490612cb1565b60405180910390fd5b919050565b7f12f1c868f7a8a61c1c0c699f7272f7089ca416432fcc978be7abb941e15ab6a381565b7f000000000000000000000000000000000000000000000000000000000000000081565b60016020528060005260406000206000915090505481565b600360049054906101000a900463ffffffff1681565b6000341461198b576040517f08c379a000000000000000000000000000000000000000000000000000000000815260040161198290612d11565b60405180910390fd5b600081146119ce576040517f08c379a00000000000000000000000000000000000000000000000000000000081526004016119c590612c11565b60405180910390fd5b60008473ffffffffffffffffffffffffffffffffffffffff16837f0000000000000000000000000000000000000000000000000000000000000000611a139190613051565b604051611a1f906129d6565b60006040518083038185875af1925050503d8060008114611a5c576040519150601f19603f3d011682016040523d82523d6000602084013e611a61565b606091505b5050905080611aa5576040517f08c379a0000000000000000000000000000000000000000000000000000000008152600401611a9c90612c71565b60405180910390fd5b6000831115611b5b578373ffffffffffffffffffffffffffffffffffffffff1683604051611ad2906129d6565b60006040518083038185875af1925050503d8060008114611b0f576040519150601f19603f3d011682016040523d82523d6000602084013e611b14565b606091505b50508091505080611b5a576040517f08c379a0000000000000000000000000000000000000000000000000000000008152600401611b5190612c91565b60405180910390fd5b5b5050505050565b6000806060600080600360049054906101000a900463ffffffff16905060008054906101000a900463ffffffff166002611b9c9190612f4f565b63ffffffff168163ffffffff161415611bea576040517f08c379a0000000000000000000000000000000000000000000000000000000008152600401611be190612cd1565b60405180910390fd5b6000819050600087905060008060008060009054906101000a900463ffffffff1663ffffffff1667ffffffffffffffff811115611c50577f4e487b7100000000000000000000000000000000000000000000000000000000600052604160045260246000fd5b604051908082528060200260200182016040528015611c7e5781602001602082028036833780820191505090505b5090506000805b60008054906101000a900463ffffffff1663ffffffff168163ffffffff161015611e27576000600288611cb89190613238565b63ffffffff161415611d5457859450611cd68163ffffffff1661144d565b935085600160008363ffffffff1681526020019081526020016000208190555083838263ffffffff1681518110611d36577f4e487b7100000000000000000000000000000000000000000000000000000000600052603260045260246000fd5b60200260200101818152505060018263ffffffff16901b9150611dd8565b600160008263ffffffff16815260200190815260200160002054945085935084838263ffffffff1681518110611db3577f4e487b7100000000000000000000000000000000000000000000000000000000600052603260045260246000fd5b6020026020010181815250506001808363ffffffff16901b611dd59190612e91565b91505b611e037f00000000000000000000000000000000000000000000000000000000000000008686610fc9565b9550600287611e129190612ecb565b96508080611e1f9061320b565b915050611c85565b506000601e6001600360009054906101000a900463ffffffff16611e4b9190612e91565b611e559190613238565b905080600360006101000a81548163ffffffff021916908363ffffffff16021790555085600260008363ffffffff16815260200190815260200160002081905550600188611ea39190612e91565b600360046101000a81548163ffffffff021916908363ffffffff160217905550858884849b509b509b509b5050505050505050509193509193565b7f00000000000000000000000000000000000000000000000000000000000000003414611f40576040517f08c379a0000000000000000000000000000000000000000000000000000000008152600401611f3790612b91565b60405180910390fd5b565b60008083601f840112611f5457600080fd5b8235905067ffffffffffffffff811115611f6d57600080fd5b602083019150836020820283011115611f8557600080fd5b9250929050565b600081905082602060060282011115611fa457600080fd5b92915050565b600081905082602060080282011115611fc257600080fd5b92915050565b600081519050611fd7816132d4565b92915050565b600081359050611fec816132eb565b92915050565b60008135905061200181613302565b92915050565b60008135905061201681613319565b92915050565b60008151905061202b81613319565b92915050565b6000806020838503121561204457600080fd5b600083013567ffffffffffffffff81111561205e57600080fd5b61206a85828601611f42565b92509250509250929050565b6000806101c0838503121561208a57600080fd5b600061209885828601611faa565b9250506101006120aa85828601611f8c565b9150509250929050565b6000602082840312156120c657600080fd5b60006120d484828501611fc8565b91505092915050565b6000602082840312156120ef57600080fd5b60006120fd84828501611fdd565b91505092915050565b60008060006060848603121561211b57600080fd5b600061212986828701611ff2565b935050602061213a86828701611fdd565b925050604061214b86828701611fdd565b9150509250925092565b60006020828403121561216757600080fd5b600061217584828501612007565b91505092915050565b6000806040838503121561219157600080fd5b600061219f85828601612007565b92505060206121b085828601612007565b9150509250929050565b600080604083850312156121cd57600080fd5b60006121db8582860161201c565b92505060206121ec8582860161201c565b9150509250929050565b60006122028383612378565b60408301905092915050565b600061221a8383612436565b60208301905092915050565b60006122328383612454565b60208301905092915050565b600061224a83836129a9565b60208301905092915050565b61225f816130f9565b82525050565b61226e81612dd2565b6122788184612e32565b925061228382612d9e565b8060005b838110156122b457815161229b87826121f6565b96506122a683612dfe565b925050600181019050612287565b505050505050565b60006122c782612ddd565b6122d18185612e3d565b93506122dc83612da8565b8060005b8381101561230d5781516122f4888261220e565b97506122ff83612e0b565b9250506001810190506122e0565b5085935050505092915050565b600061232582612de8565b61232f8185612e4e565b935061233a83612db8565b8060005b8381101561236b5781516123528882612226565b975061235d83612e18565b92505060018101905061233e565b5085935050505092915050565b61238181612df3565b61238b8184612e5f565b925061239682612dc8565b8060005b838110156123c75781516123ae878261223e565b96506123b983612e25565b92505060018101905061239a565b505050505050565b6123d881612df3565b6123e28184612e6a565b92506123ed82612dc8565b8060005b8381101561241e578151612405878261223e565b965061241083612e25565b9250506001810190506123f1565b505050505050565b61243260c08383613189565b5050565b61243f81613097565b82525050565b61244e81613097565b82525050565b61245d816130a3565b82525050565b61246c816130a3565b82525050565b61247b8161310b565b82525050565b61248a8161312f565b82525050565b61249981613153565b82525050565b60006124ac601c83612e80565b91507f43616e6e6f742066696e6420796f7572206d65726b6c6520726f6f74000000006000830152602082019050919050565b60006124ec601a83612e80565b91507f4665652065786365656473207472616e736665722076616c75650000000000006000830152602082019050919050565b600061252c603883612e80565b91507f506c656173652073656e6420606d697844656e6f6d696e6174696f6e6020455460008301527f4820616c6f6e672077697468207472616e73616374696f6e00000000000000006020830152604082019050919050565b6000612592602083612e80565b91507f5f6c6566742073686f756c6420626520696e7369646520746865206669656c646000830152602082019050919050565b60006125d2602183612e80565b91507f5f72696768742073686f756c6420626520696e7369646520746865206669656c60008301527f64000000000000000000000000000000000000000000000000000000000000006020830152604082019050919050565b6000612638601683612e80565b91507f496e76616c69642077697468647261772070726f6f66000000000000000000006000830152602082019050919050565b6000612678603483612e80565b91507f526566756e642076616c756520697320737570706f73656420746f206265207a60008301527f65726f20666f722045544820696e7374616e63650000000000000000000000006020830152604082019050919050565b60006126de601f83612e80565b91507f546865206e6f746520686173206265656e20616c7265616479207370656e74006000830152602082019050919050565b600061271e602183612e80565b91507f54686520636f6d6d69746d656e7420686173206265656e207375626d6974746560008301527f64000000000000000000000000000000000000000000000000000000000000006020830152604082019050919050565b6000612784602583612e80565b91507f7061796d656e7420746f205f726563697069656e7420646964206e6f7420676f60008301527f20746872750000000000000000000000000000000000000000000000000000006020830152604082019050919050565b60006127ea600083612e75565b9150600082019050919050565b6000612804602383612e80565b91507f7061796d656e7420746f205f72656c6179657220646964206e6f7420676f207460008301527f68727500000000000000000000000000000000000000000000000000000000006020830152604082019050919050565b600061286a601383612e80565b91507f496e646578206f7574206f6620626f756e6473000000000000000000000000006000830152602082019050919050565b60006128aa603083612e80565b91507f4d65726b6c6520747265652069732066756c6c2e204e6f206d6f7265206c656160008301527f7665732063616e206265206164646564000000000000000000000000000000006020830152604082019050919050565b6000612910601f83612e80565b91507f5265656e7472616e637947756172643a207265656e7472616e742063616c6c006000830152602082019050919050565b6000612950603583612e80565b91507f4d6573736167652076616c756520697320737570706f73656420746f2062652060008301527f7a65726f20666f722045544820696e7374616e636500000000000000000000006020830152604082019050919050565b6129b2816130df565b82525050565b6129c1816130df565b82525050565b6129d0816130e9565b82525050565b60006129e1826127dd565b9150819050919050565b6000606082019050612a006000830186612256565b612a0d6020830185612463565b612a1a60408301846129b8565b949350505050565b60006020820190508181036000830152612a3c81846122bc565b905092915050565b60006101c082019050612a5a60008301876123cf565b612a676040830186612265565b612a7460c08301856123cf565b612a82610100830184612426565b95945050505050565b6000602082019050612aa06000830184612445565b92915050565b6000602082019050612abb6000830184612463565b92915050565b600060a082019050612ad66000830188612463565b612ae360208301876129c7565b8181036040830152612af5818661231a565b9050612b0460608301856129c7565b612b1160808301846129b8565b9695505050505050565b6000602082019050612b306000830184612472565b92915050565b6000602082019050612b4b6000830184612481565b92915050565b60006020820190508181036000830152612b6a8161249f565b9050919050565b60006020820190508181036000830152612b8a816124df565b9050919050565b60006020820190508181036000830152612baa8161251f565b9050919050565b60006020820190508181036000830152612bca81612585565b9050919050565b60006020820190508181036000830152612bea816125c5565b9050919050565b60006020820190508181036000830152612c0a8161262b565b9050919050565b60006020820190508181036000830152612c2a8161266b565b9050919050565b60006020820190508181036000830152612c4a816126d1565b9050919050565b60006020820190508181036000830152612c6a81612711565b9050919050565b60006020820190508181036000830152612c8a81612777565b9050919050565b60006020820190508181036000830152612caa816127f7565b9050919050565b60006020820190508181036000830152612cca8161285d565b9050919050565b60006020820190508181036000830152612cea8161289d565b9050919050565b60006020820190508181036000830152612d0a81612903565b9050919050565b60006020820190508181036000830152612d2a81612943565b9050919050565b6000602082019050612d4660008301846129b8565b92915050565b6000606082019050612d6160008301866129b8565b612d6e60208301856129b8565b612d7b6040830184612490565b949350505050565b6000602082019050612d9860008301846129c7565b92915050565b6000819050919050565b6000819050602082019050919050565b6000819050602082019050919050565b6000819050919050565b600060029050919050565b600081519050919050565b600081519050919050565b600060029050919050565b6000602082019050919050565b6000602082019050919050565b6000602082019050919050565b6000602082019050919050565b600081905092915050565b600082825260208201905092915050565b600082825260208201905092915050565b600081905092915050565b600081905092915050565b600081905092915050565b600082825260208201905092915050565b6000612e9c826130e9565b9150612ea7836130e9565b92508263ffffffff03821115612ec057612ebf613269565b5b828201905092915050565b6000612ed6826130e9565b9150612ee1836130e9565b925082612ef157612ef0613298565b5b828204905092915050565b6000808291508390505b6001851115612f4657808604811115612f2257612f21613269565b5b6001851615612f315780820291505b8081029050612f3f856132c7565b9450612f06565b94509492505050565b6000612f5a826130e9565b9150612f65836130e9565b9250612f7663ffffffff8484612f7e565b905092915050565b600082612f8e576001905061304a565b81612f9c576000905061304a565b8160018114612fb25760028114612fbc57612feb565b600191505061304a565b60ff841115612fce57612fcd613269565b5b8360020a915084821115612fe557612fe4613269565b5b5061304a565b5060208310610133831016604e8410600b84101617156130205782820a90508381111561301b5761301a613269565b5b61304a565b61302d8484846001612efc565b9250905081840481111561304457613043613269565b5b81810290505b9392505050565b600061305c826130df565b9150613067836130df565b92508282101561307a57613079613269565b5b828203905092915050565b6000613090826130bf565b9050919050565b60008115159050919050565b6000819050919050565b60006130b882613085565b9050919050565b600073ffffffffffffffffffffffffffffffffffffffff82169050919050565b6000819050919050565b600063ffffffff82169050919050565b600061310482613165565b9050919050565b60006131168261311d565b9050919050565b6000613128826130bf565b9050919050565b600061313a82613141565b9050919050565b600061314c826130bf565b9050919050565b600061315e826130df565b9050919050565b600061317082613177565b9050919050565b6000613182826130bf565b9050919050565b82818337600083830152505050565b60006131a3826130e9565b915060008214156131b7576131b6613269565b5b600182039050919050565b60006131cd826130df565b91507fffffffffffffffffffffffffffffffffffffffffffffffffffffffffffffffff821415613200576131ff613269565b5b600182019050919050565b6000613216826130e9565b915063ffffffff82141561322d5761322c613269565b5b600182019050919050565b6000613243826130e9565b915061324e836130e9565b92508261325e5761325d613298565b5b828206905092915050565b7f4e487b7100000000000000000000000000000000000000000000000000000000600052601160045260246000fd5b7f4e487b7100000000000000000000000000000000000000000000000000000000600052601260045260246000fd5b60008160011c9050919050565b6132dd81613097565b81146132e857600080fd5b50565b6132f4816130a3565b81146132ff57600080fd5b50565b61330b816130ad565b811461331657600080fd5b50565b613322816130df565b811461332d57600080fd5b5056fea264697066735822122050da2f70477425c2d4f717d7d41c3d15e2f02d0feb3f240341eecdfffe81efe964736f6c63430008000033",
  "immutableReferences": {
    "177": [
      {
        "length": 32,
        "start": 1444
      },
      {
        "length": 32,
        "start": 2266
      }
    ],
    "179": [
      {
        "length": 32,
        "start": 1806
      },
      {
        "length": 32,
        "start": 4007
      },
      {
        "length": 32,
        "start": 6634
      },
      {
        "length": 32,
        "start": 7904
      }
    ],
    "562": [
      {
        "length": 32,
        "start": 1483
      },
      {
        "length": 32,
        "start": 6392
      },
      {
        "length": 32,
        "start": 7645
      }
    ]
  },
  "source": "// SPDX-License-Identifier: MIT\npragma solidity ^0.8.0;\n\nimport \"./Hongbao.sol\";\n\ncontract ETHHongbao is Hongbao {\n  constructor(\n    IVerifier _verifier,\n    IHasher _hasher,\n    uint256 _denomination,\n    uint32 _merkleTreeHeight\n  ) Hongbao(_verifier, _hasher, _denomination, _merkleTreeHeight) {}\n\n  function _processDeposit() internal override {\n    require(msg.value == denomination, \"Please send `mixDenomination` ETH along with transaction\");\n  }\n\n  function _processWithdraw(\n    address payable _recipient,\n    address payable _relayer,\n    uint256 _fee,\n    uint256 _refund\n  ) internal override {\n    // sanity checks\n    require(msg.value == 0, \"Message value is supposed to be zero for ETH instance\");\n    require(_refund == 0, \"Refund value is supposed to be zero for ETH instance\");\n\n    (bool success, ) = _recipient.call{ value: denomination - _fee }(\"\");\n    require(success, \"payment to _recipient did not go thru\");\n    if (_fee > 0) {\n      (success, ) = _relayer.call{ value: _fee }(\"\");\n      require(success, \"payment to _relayer did not go thru\");\n    }\n  }\n}\n",
  "sourcePath": "/media/disk2/ubuntu/hongbao-core/contracts/ETHHongbao.sol",
  "compiler": {
    "name": "solc",
    "version": "0.8.0+commit.c7dfd78e.Emscripten.clang"
  },
  "schemaVersion": "3.4.7",
  "updatedAt": "2022-05-08T08:21:20.069Z",
  "networkType": "ethereum",
  "devdoc": {
    "kind": "dev",
    "methods": {
      "deposit(bytes32)": {
        "details": "Deposit funds into the contract. The caller must send (for ETH) or approve (for ERC20) value equal to or `denomination` of this instance.",
        "params": {
          "_commitment": "the note commitment, which is PedersenHash(nullifier + secret)"
        }
      },
      "getLastRoot()": {
        "details": "Returns the last root"
      },
      "hashLeftRight(address,bytes32,bytes32)": {
        "details": "Hash 2 tree leaves, returns MiMC(_left, _right)"
      },
      "isKnownRoot(bytes32)": {
        "details": "Whether the root is present in the root history"
      },
      "isSpent(bytes32)": {
        "details": "whether a note is already spent "
      },
      "isSpentArray(bytes32[])": {
        "details": "whether an array of notes is already spent "
      },
      "withdraw(uint256[8],uint256[6])": {
        "details": "Withdraw a deposit from the contract. `proof` is a zkSNARK proof data, and input is an array of circuit public inputs `input` array consists of: - merkle root of all deposits in the contract - hash of unique deposit nullifier to prevent double spends - the recipient of funds - optional fee that goes to the transaction sender (usually a relay)",
        "params": {
          "_proofData": ": zkSNARK proof _pi_a, _pi_b, _pic",
          "_publicInputs": ": [root, nullifierHash, recipient, relayer, fee, refund]*"
        }
      },
      "zeros(uint256)": {
        "details": "provides Zero (Empty) elements for a MiMC MerkleTree. Up to 32 levels"
      }
    },
    "version": 1
  },
  "userdoc": {
    "kind": "user",
    "methods": {},
    "version": 1
  }
}